{
  "contractName": "Adoption",
  "abi": [
    {
      "constant": true,
      "inputs": [
        {
          "internalType": "uint256",
          "name": "",
          "type": "uint256"
        }
      ],
      "name": "adopters",
      "outputs": [
        {
          "internalType": "address",
          "name": "",
          "type": "address"
        }
      ],
      "payable": false,
      "stateMutability": "view",
      "type": "function"
    },
    {
      "constant": false,
      "inputs": [
        {
          "internalType": "uint256",
          "name": "petId",
          "type": "uint256"
        }
      ],
      "name": "adopt",
      "outputs": [
        {
          "internalType": "uint256",
          "name": "",
          "type": "uint256"
        }
      ],
      "payable": false,
      "stateMutability": "nonpayable",
      "type": "function"
    },
    {
      "constant": true,
      "inputs": [],
      "name": "getAdopters",
      "outputs": [
        {
          "internalType": "address[16]",
          "name": "",
          "type": "address[16]"
        }
      ],
      "payable": false,
      "stateMutability": "view",
      "type": "function"
    },
    {
      "constant": false,
      "inputs": [
        {
          "internalType": "uint256",
          "name": "petId",
          "type": "uint256"
        }
      ],
      "name": "returnPet",
      "outputs": [
        {
          "internalType": "address",
          "name": "",
          "type": "address"
        }
      ],
      "payable": false,
      "stateMutability": "nonpayable",
      "type": "function"
    }
  ],
  "bytecode": "0x608060405234801561001057600080fd5b50610437806100206000396000f3fe608060405234801561001057600080fd5b506004361061004c5760003560e01c80633de4eb171461005157806343ae80d3146100975780638588b2c514610105578063bdb92e8e14610147575b600080fd5b6100596101b5565b6040518082601060200280838360005b83811015610084578082015181840152602081019050610069565b5050505090500191505060405180910390f35b6100c3600480360360208110156100ad57600080fd5b8101908080359060200190929190505050610236565b604051808273ffffffffffffffffffffffffffffffffffffffff1673ffffffffffffffffffffffffffffffffffffffff16815260200191505060405180910390f35b6101316004803603602081101561011b57600080fd5b8101908080359060200190929190505050610269565b6040518082815260200191505060405180910390f35b6101736004803603602081101561015d57600080fd5b81019080803590602001909291905050506102da565b604051808273ffffffffffffffffffffffffffffffffffffffff1673ffffffffffffffffffffffffffffffffffffffff16815260200191505060405180910390f35b6101bd6103df565b600060108060200260405190810160405280929190826010801561022c576020028201915b8160009054906101000a900473ffffffffffffffffffffffffffffffffffffffff1673ffffffffffffffffffffffffffffffffffffffff16815260200190600101908083116101e2575b5050505050905090565b6000816010811061024357fe5b016000915054906101000a900473ffffffffffffffffffffffffffffffffffffffff1681565b600080821015801561027c5750600f8211155b61028557600080fd5b336000836010811061029357fe5b0160006101000a81548173ffffffffffffffffffffffffffffffffffffffff021916908373ffffffffffffffffffffffffffffffffffffffff160217905550819050919050565b60008082101580156102ed5750600f8211155b6102f657600080fd5b6000826010811061030357fe5b0160009054906101000a900473ffffffffffffffffffffffffffffffffffffffff1673ffffffffffffffffffffffffffffffffffffffff163373ffffffffffffffffffffffffffffffffffffffff161461035c57600080fd5b600080836010811061036a57fe5b0160006101000a81548173ffffffffffffffffffffffffffffffffffffffff021916908373ffffffffffffffffffffffffffffffffffffffff160217905550600082601081106103b657fe5b0160009054906101000a900473ffffffffffffffffffffffffffffffffffffffff169050919050565b60405180610200016040528060109060208202803883398082019150509050509056fea265627a7a7231582069dca5109a0db8e7807d217228ef9c3133f56a446726b679300383d811af507e64736f6c63430005100032",
  "source": "pragma solidity ^0.5.0;\n\ncontract Adoption {\n\taddress[16] public adopters;\n\n\t// Adopting a pet\n\tfunction adopt(uint petId) public returns (uint) {\n\t\trequire(petId >= 0 && petId <= 15);\n\n\t\tadopters[petId] = msg.sender;\n\n\t\treturn petId;\n\t}\n\n\t// Retrieving the adopters\n\tfunction getAdopters() public view returns (address[16] memory) {\n\t\treturn adopters;\n\t}\n\t\n\t// Return Pet\n\tfunction returnPet(uint petId) public returns (address) {\n\t\trequire(petId >= 0 && petId <= 15);\n\t\t\n\t\t// Address must own the pet\n\t\trequire(msg.sender == adopters[petId]);\n\t\t\n\t\t// Clear the adopter for this pet\n\t\tadopters[petId] = address(0);\n\t\t\n\t\treturn adopters[petId];\n\t}\n\n}\n",
  "sourcePath": "/home/mpoletiek/devspace/nodejs/pet-shop-tutorial/contracts/Adoption.sol",
  "compiler": {
    "name": "solc",
    "version": "0.5.16+commit.9c3226ce.Emscripten.clang"
  },
  "schemaVersion": "3.4.4",
  "updatedAt": "2022-01-07T05:09:47.041Z",
  "devdoc": {
    "methods": {}
  },
  "userdoc": {
    "methods": {}
  }
}